{"chain/contracts/ProofRegistry.sol":{"ProofRegistry":{"abi":[{"anonymous":false,"inputs":[{"indexed":true,"internalType":"bytes32","name":"fileHash","type":"bytes32"},{"indexed":true,"internalType":"bytes32","name":"emailSha","type":"bytes32"},{"indexed":false,"internalType":"string","name":"ipfsCid","type":"string"},{"indexed":false,"internalType":"uint256","name":"timestamp","type":"uint256"}],"name":"ProofRegistered","type":"event"},{"inputs":[{"internalType":"bytes32","name":"fileHash","type":"bytes32"}],"name":"getProof","outputs":[{"internalType":"bool","name":"exists","type":"bool"},{"internalType":"bytes32","name":"ownerEmailSha","type":"bytes32"},{"internalType":"uint256","name":"timestamp","type":"uint256"},{"internalType":"string","name":"ipfsCid","type":"string"}],"stateMutability":"view","type":"function"},{"inputs":[{"internalType":"bytes32","name":"fileHash","type":"bytes32"},{"internalType":"bytes32","name":"emailSha","type":"bytes32"},{"internalType":"string","name":"ipfsCid","type":"string"}],"name":"registerProof","outputs":[],"stateMutability":"nonpayable","type":"function"}],"evm":{"bytecode":{"linkReferences":{},"object":"608060405234801561001057600080fd5b50610583806100206000396000f3fe608060405234801561001057600080fd5b50600436106100365760003560e01c806318edfbc51461003b5780631b80bb3a14610050575b600080fd5b61004e6100493660046102b3565b61007c565b005b61006361005e366004610333565b6101b8565b604051610073949392919061034c565b60405180910390f35b60008481526020819052604090205460ff16156100d45760405162461bcd60e51b8152602060048201526012602482015271105b1c9958591e481c9959da5cdd195c995960721b604482015260640160405180910390fd5b604051806080016040528060011515815260200184815260200142815260200183838080601f016020809104026020016040519081016040528093929190818152602001838380828437600092018290525093909452505086815260208181526040918290208451815460ff1916901515178155908401516001820155908301516002820155606083015190915060038201906101719082610454565b5090505082847fb4d2f6e3ea9b6bf151b67a398411a68d952bd841d4103acb4a9c45eb4b88c9a58484426040516101aa93929190610514565b60405180910390a350505050565b6000818152602081815260408083208151608081018352815460ff1615158152600182015493810193909352600281015491830191909152600381018054849384936060938593838601919061020d906103c9565b80601f0160208091040260200160405190810160405280929190818152602001828054610239906103c9565b80156102865780601f1061025b57610100808354040283529160200191610286565b820191906000526020600020905b81548152906001019060200180831161026957829003601f168201915b505050919092525050815160208301516040840151606090940151919a9099509297509550909350505050565b600080600080606085870312156102c957600080fd5b8435935060208501359250604085013567ffffffffffffffff808211156102ef57600080fd5b818701915087601f83011261030357600080fd5b81358181111561031257600080fd5b88602082850101111561032457600080fd5b95989497505060200194505050565b60006020828403121561034557600080fd5b5035919050565b84151581526000602085602084015284604084015260806060840152835180608085015260005b8181101561038f5785810183015185820160a001528201610373565b50600060a0828601015260a0601f19601f8301168501019250505095945050505050565b634e487b7160e01b600052604160045260246000fd5b600181811c908216806103dd57607f821691505b6020821081036103fd57634e487b7160e01b600052602260045260246000fd5b50919050565b601f82111561044f576000816000526020600020601f850160051c8101602086101561042c5750805b601f850160051c820191505b8181101561044b57828155600101610438565b5050505b505050565b815167ffffffffffffffff81111561046e5761046e6103b3565b6104828161047c84546103c9565b84610403565b602080601f8311600181146104b7576000841561049f5750858301515b600019600386901b1c1916600185901b17855561044b565b600085815260208120601f198616915b828110156104e6578886015182559484019460019091019084016104c7565b50858210156105045787850151600019600388901b60f8161c191681555b5050505050600190811b01905550565b604081528260408201528284606083013760006060848301015260006060601f19601f860116830101905082602083015294935050505056fea264697066735822122095d6debd6261e7afa7180cffd26a92a4b113553bd4bffd38b0f4ba1333f1dcd164736f6c63430008180033","opcodes":"PUSH1 0x80 PUSH1 0x40 MSTORE CALLVALUE DUP1 ISZERO PUSH2 0x10 JUMPI PUSH1 0x0 DUP1 REVERT JUMPDEST POP PUSH2 0x583 DUP1 PUSH2 0x20 PUSH1 0x0 CODECOPY PUSH1 0x0 RETURN INVALID PUSH1 0x80 PUSH1 0x40 MSTORE CALLVALUE DUP1 ISZERO PUSH2 0x10 JUMPI PUSH1 0x0 DUP1 REVERT JUMPDEST POP PUSH1 0x4 CALLDATASIZE LT PUSH2 0x36 JUMPI PUSH1 0x0 CALLDATALOAD PUSH1 0xE0 SHR DUP1 PUSH4 0x18EDFBC5 EQ PUSH2 0x3B JUMPI DUP1 PUSH4 0x1B80BB3A EQ PUSH2 0x50 JUMPI JUMPDEST PUSH1 0x0 DUP1 REVERT JUMPDEST PUSH2 0x4E PUSH2 0x49 CALLDATASIZE PUSH1 0x4 PUSH2 0x2B3 JUMP JUMPDEST PUSH2 0x7C JUMP JUMPDEST STOP JUMPDEST PUSH2 0x63 PUSH2 0x5E CALLDATASIZE PUSH1 0x4 PUSH2 0x333 JUMP JUMPDEST PUSH2 0x1B8 JUMP JUMPDEST PUSH1 0x40 MLOAD PUSH2 0x73 SWAP5 SWAP4 SWAP3 SWAP2 SWAP1 PUSH2 0x34C JUMP JUMPDEST PUSH1 0x40 MLOAD DUP1 SWAP2 SUB SWAP1 RETURN JUMPDEST PUSH1 0x0 DUP5 DUP2 MSTORE PUSH1 0x20 DUP2 SWAP1 MSTORE PUSH1 0x40 SWAP1 KECCAK256 SLOAD PUSH1 0xFF AND ISZERO PUSH2 0xD4 JUMPI PUSH1 0x40 MLOAD PUSH3 0x461BCD PUSH1 0xE5 SHL DUP2 MSTORE PUSH1 0x20 PUSH1 0x4 DUP3 ADD MSTORE PUSH1 0x12 PUSH1 0x24 DUP3 ADD MSTORE PUSH18 0x105B1C9958591E481C9959DA5CDD195C9959 PUSH1 0x72 SHL PUSH1 0x44 DUP3 ADD MSTORE PUSH1 0x64 ADD PUSH1 0x40 MLOAD DUP1 SWAP2 SUB SWAP1 REVERT JUMPDEST PUSH1 0x40 MLOAD DUP1 PUSH1 0x80 ADD PUSH1 0x40 MSTORE DUP1 PUSH1 0x1 ISZERO ISZERO DUP2 MSTORE PUSH1 0x20 ADD DUP5 DUP2 MSTORE PUSH1 0x20 ADD TIMESTAMP DUP2 MSTORE PUSH1 0x20 ADD DUP4 DUP4 DUP1 DUP1 PUSH1 0x1F ADD PUSH1 0x20 DUP1 SWAP2 DIV MUL PUSH1 0x20 ADD PUSH1 0x40 MLOAD SWAP1 DUP2 ADD PUSH1 0x40 MSTORE DUP1 SWAP4 SWAP3 SWAP2 SWAP1 DUP2 DUP2 MSTORE PUSH1 0x20 ADD DUP4 DUP4 DUP1 DUP3 DUP5 CALLDATACOPY PUSH1 0x0 SWAP3 ADD DUP3 SWAP1 MSTORE POP SWAP4 SWAP1 SWAP5 MSTORE POP POP DUP7 DUP2 MSTORE PUSH1 0x20 DUP2 DUP2 MSTORE PUSH1 0x40 SWAP2 DUP3 SWAP1 KECCAK256 DUP5 MLOAD DUP2 SLOAD PUSH1 0xFF NOT AND SWAP1 ISZERO ISZERO OR DUP2 SSTORE SWAP1 DUP5 ADD MLOAD PUSH1 0x1 DUP3 ADD SSTORE SWAP1 DUP4 ADD MLOAD PUSH1 0x2 DUP3 ADD SSTORE PUSH1 0x60 DUP4 ADD MLOAD SWAP1 SWAP2 POP PUSH1 0x3 DUP3 ADD SWAP1 PUSH2 0x171 SWAP1 DUP3 PUSH2 0x454 JUMP JUMPDEST POP SWAP1 POP POP DUP3 DUP5 PUSH32 0xB4D2F6E3EA9B6BF151B67A398411A68D952BD841D4103ACB4A9C45EB4B88C9A5 DUP5 DUP5 TIMESTAMP PUSH1 0x40 MLOAD PUSH2 0x1AA SWAP4 SWAP3 SWAP2 SWAP1 PUSH2 0x514 JUMP JUMPDEST PUSH1 0x40 MLOAD DUP1 SWAP2 SUB SWAP1 LOG3 POP POP POP POP JUMP JUMPDEST PUSH1 0x0 DUP2 DUP2 MSTORE PUSH1 0x20 DUP2 DUP2 MSTORE PUSH1 0x40 DUP1 DUP4 KECCAK256 DUP2 MLOAD PUSH1 0x80 DUP2 ADD DUP4 MSTORE DUP2 SLOAD PUSH1 0xFF AND ISZERO ISZERO DUP2 MSTORE PUSH1 0x1 DUP3 ADD SLOAD SWAP4 DUP2 ADD SWAP4 SWAP1 SWAP4 MSTORE PUSH1 0x2 DUP2 ADD SLOAD SWAP2 DUP4 ADD SWAP2 SWAP1 SWAP2 MSTORE PUSH1 0x3 DUP2 ADD DUP1 SLOAD DUP5 SWAP4 DUP5 SWAP4 PUSH1 0x60 SWAP4 DUP6 SWAP4 DUP4 DUP7 ADD SWAP2 SWAP1 PUSH2 0x20D SWAP1 PUSH2 0x3C9 JUMP JUMPDEST DUP1 PUSH1 0x1F ADD PUSH1 0x20 DUP1 SWAP2 DIV MUL PUSH1 0x20 ADD PUSH1 0x40 MLOAD SWAP1 DUP2 ADD PUSH1 0x40 MSTORE DUP1 SWAP3 SWAP2 SWAP1 DUP2 DUP2 MSTORE PUSH1 0x20 ADD DUP3 DUP1 SLOAD PUSH2 0x239 SWAP1 PUSH2 0x3C9 JUMP JUMPDEST DUP1 ISZERO PUSH2 0x286 JUMPI DUP1 PUSH1 0x1F LT PUSH2 0x25B JUMPI PUSH2 0x100 DUP1 DUP4 SLOAD DIV MUL DUP4 MSTORE SWAP2 PUSH1 0x20 ADD SWAP2 PUSH2 0x286 JUMP JUMPDEST DUP3 ADD SWAP2 SWAP1 PUSH1 0x0 MSTORE PUSH1 0x20 PUSH1 0x0 KECCAK256 SWAP1 JUMPDEST DUP2 SLOAD DUP2 MSTORE SWAP1 PUSH1 0x1 ADD SWAP1 PUSH1 0x20 ADD DUP1 DUP4 GT PUSH2 0x269 JUMPI DUP3 SWAP1 SUB PUSH1 0x1F AND DUP3 ADD SWAP2 JUMPDEST POP POP POP SWAP2 SWAP1 SWAP3 MSTORE POP POP DUP2 MLOAD PUSH1 0x20 DUP4 ADD MLOAD PUSH1 0x40 DUP5 ADD MLOAD PUSH1 0x60 SWAP1 SWAP5 ADD MLOAD SWAP2 SWAP11 SWAP1 SWAP10 POP SWAP3 SWAP8 POP SWAP6 POP SWAP1 SWAP4 POP POP POP POP JUMP JUMPDEST PUSH1 0x0 DUP1 PUSH1 0x0 DUP1 PUSH1 0x60 DUP6 DUP8 SUB SLT ISZERO PUSH2 0x2C9 JUMPI PUSH1 0x0 DUP1 REVERT JUMPDEST DUP5 CALLDATALOAD SWAP4 POP PUSH1 0x20 DUP6 ADD CALLDATALOAD SWAP3 POP PUSH1 0x40 DUP6 ADD CALLDATALOAD PUSH8 0xFFFFFFFFFFFFFFFF DUP1 DUP3 GT ISZERO PUSH2 0x2EF JUMPI PUSH1 0x0 DUP1 REVERT JUMPDEST DUP2 DUP8 ADD SWAP2 POP DUP8 PUSH1 0x1F DUP4 ADD SLT PUSH2 0x303 JUMPI PUSH1 0x0 DUP1 REVERT JUMPDEST DUP2 CALLDATALOAD DUP2 DUP2 GT ISZERO PUSH2 0x312 JUMPI PUSH1 0x0 DUP1 REVERT JUMPDEST DUP9 PUSH1 0x20 DUP3 DUP6 ADD ADD GT ISZERO PUSH2 0x324 JUMPI PUSH1 0x0 DUP1 REVERT JUMPDEST SWAP6 SWAP9 SWAP5 SWAP8 POP POP PUSH1 0x20 ADD SWAP5 POP POP POP JUMP JUMPDEST PUSH1 0x0 PUSH1 0x20 DUP3 DUP5 SUB SLT ISZERO PUSH2 0x345 JUMPI PUSH1 0x0 DUP1 REVERT JUMPDEST POP CALLDATALOAD SWAP2 SWAP1 POP JUMP JUMPDEST DUP5 ISZERO ISZERO DUP2 MSTORE PUSH1 0x0 PUSH1 0x20 DUP6 PUSH1 0x20 DUP5 ADD MSTORE DUP5 PUSH1 0x40 DUP5 ADD MSTORE PUSH1 0x80 PUSH1 0x60 DUP5 ADD MSTORE DUP4 MLOAD DUP1 PUSH1 0x80 DUP6 ADD MSTORE PUSH1 0x0 JUMPDEST DUP2 DUP2 LT ISZERO PUSH2 0x38F JUMPI DUP6 DUP2 ADD DUP4 ADD MLOAD DUP6 DUP3 ADD PUSH1 0xA0 ADD MSTORE DUP3 ADD PUSH2 0x373 JUMP JUMPDEST POP PUSH1 0x0 PUSH1 0xA0 DUP3 DUP7 ADD ADD MSTORE PUSH1 0xA0 PUSH1 0x1F NOT PUSH1 0x1F DUP4 ADD AND DUP6 ADD ADD SWAP3 POP POP POP SWAP6 SWAP5 POP POP POP POP POP JUMP JUMPDEST PUSH4 0x4E487B71 PUSH1 0xE0 SHL PUSH1 0x0 MSTORE PUSH1 0x41 PUSH1 0x4 MSTORE PUSH1 0x24 PUSH1 0x0 REVERT JUMPDEST PUSH1 0x1 DUP2 DUP2 SHR SWAP1 DUP3 AND DUP1 PUSH2 0x3DD JUMPI PUSH1 0x7F DUP3 AND SWAP2 POP JUMPDEST PUSH1 0x20 DUP3 LT DUP2 SUB PUSH2 0x3FD JUMPI PUSH4 0x4E487B71 PUSH1 0xE0 SHL PUSH1 0x0 MSTORE PUSH1 0x22 PUSH1 0x4 MSTORE PUSH1 0x24 PUSH1 0x0 REVERT JUMPDEST POP SWAP2 SWAP1 POP JUMP JUMPDEST PUSH1 0x1F DUP3 GT ISZERO PUSH2 0x44F JUMPI PUSH1 0x0 DUP2 PUSH1 0x0 MSTORE PUSH1 0x20 PUSH1 0x0 KECCAK256 PUSH1 0x1F DUP6 ADD PUSH1 0x5 SHR DUP2 ADD PUSH1 0x20 DUP7 LT ISZERO PUSH2 0x42C JUMPI POP DUP1 JUMPDEST PUSH1 0x1F DUP6 ADD PUSH1 0x5 SHR DUP3 ADD SWAP2 POP JUMPDEST DUP2 DUP2 LT ISZERO PUSH2 0x44B JUMPI DUP3 DUP2 SSTORE PUSH1 0x1 ADD PUSH2 0x438 JUMP JUMPDEST POP POP POP JUMPDEST POP POP POP JUMP JUMPDEST DUP2 MLOAD PUSH8 0xFFFFFFFFFFFFFFFF DUP2 GT ISZERO PUSH2 0x46E JUMPI PUSH2 0x46E PUSH2 0x3B3 JUMP JUMPDEST PUSH2 0x482 DUP2 PUSH2 0x47C DUP5 SLOAD PUSH2 0x3C9 JUMP JUMPDEST DUP5 PUSH2 0x403 JUMP JUMPDEST PUSH1 0x20 DUP1 PUSH1 0x1F DUP4 GT PUSH1 0x1 DUP2 EQ PUSH2 0x4B7 JUMPI PUSH1 0x0 DUP5 ISZERO PUSH2 0x49F JUMPI POP DUP6 DUP4 ADD MLOAD JUMPDEST PUSH1 0x0 NOT PUSH1 0x3 DUP7 SWAP1 SHL SHR NOT AND PUSH1 0x1 DUP6 SWAP1 SHL OR DUP6 SSTORE PUSH2 0x44B JUMP JUMPDEST PUSH1 0x0 DUP6 DUP2 MSTORE PUSH1 0x20 DUP2 KECCAK256 PUSH1 0x1F NOT DUP7 AND SWAP2 JUMPDEST DUP3 DUP2 LT ISZERO PUSH2 0x4E6 JUMPI DUP9 DUP7 ADD MLOAD DUP3 SSTORE SWAP5 DUP5 ADD SWAP5 PUSH1 0x1 SWAP1 SWAP2 ADD SWAP1 DUP5 ADD PUSH2 0x4C7 JUMP JUMPDEST POP DUP6 DUP3 LT ISZERO PUSH2 0x504 JUMPI DUP8 DUP6 ADD MLOAD PUSH1 0x0 NOT PUSH1 0x3 DUP9 SWAP1 SHL PUSH1 0xF8 AND SHR NOT AND DUP2 SSTORE JUMPDEST POP POP POP POP POP PUSH1 0x1 SWAP1 DUP2 SHL ADD SWAP1 SSTORE POP JUMP JUMPDEST PUSH1 0x40 DUP2 MSTORE DUP3 PUSH1 0x40 DUP3 ADD MSTORE DUP3 DUP5 PUSH1 0x60 DUP4 ADD CALLDATACOPY PUSH1 0x0 PUSH1 0x60 DUP5 DUP4 ADD ADD MSTORE PUSH1 0x0 PUSH1 0x60 PUSH1 0x1F NOT PUSH1 0x1F DUP7 ADD AND DUP4 ADD ADD SWAP1 POP DUP3 PUSH1 0x20 DUP4 ADD MSTORE SWAP5 SWAP4 POP POP POP POP JUMP INVALID LOG2 PUSH5 0x6970667358 0x22 SLT KECCAK256 SWAP6 0xD6 0xDE 0xBD PUSH3 0x61E7AF 0xA7 XOR 0xC SELFDESTRUCT 0xD2 PUSH11 0x92A4B113553BD4BFFD38B0 DELEGATECALL 0xBA SGT CALLER CALL 0xDC 0xD1 PUSH5 0x736F6C6343 STOP ADDMOD XOR STOP CALLER "},"methodIdentifiers":{"getProof(bytes32)":"1b80bb3a","registerProof(bytes32,bytes32,string)":"18edfbc5"}}}}}