{
  "_format": "hh-sol-artifact-1",
  "contractName": "ProofRegistryV2",
  "sourceName": "chain/contracts/ProofRegistryV2.sol",
  "abi": [
    {
      "anonymous": false,
      "inputs": [
        {
          "indexed": true,
          "internalType": "bytes32",
          "name": "mediaId",
          "type": "bytes32"
        },
        {
          "indexed": true,
          "internalType": "bytes32",
          "name": "ownerSha",
          "type": "bytes32"
        },
        {
          "indexed": false,
          "internalType": "bytes32",
          "name": "fileSha256",
          "type": "bytes32"
        },
        {
          "indexed": false,
          "internalType": "string",
          "name": "ipfsCid",
          "type": "string"
        },
        {
          "indexed": true,
          "internalType": "address",
          "name": "submitter",
          "type": "address"
        },
        {
          "indexed": false,
          "internalType": "uint256",
          "name": "blockNumber",
          "type": "uint256"
        }
      ],
      "name": "Registered",
      "type": "event"
    },
    {
      "inputs": [
        {
          "internalType": "bytes32",
          "name": "fileSha256",
          "type": "bytes32"
        }
      ],
      "name": "getByFileSha",
      "outputs": [
        {
          "internalType": "bool",
          "name": "exists",
          "type": "bool"
        },
        {
          "internalType": "bytes32",
          "name": "mediaId",
          "type": "bytes32"
        }
      ],
      "stateMutability": "view",
      "type": "function"
    },
    {
      "inputs": [
        {
          "internalType": "bytes32",
          "name": "mediaId",
          "type": "bytes32"
        }
      ],
      "name": "getByMediaId",
      "outputs": [
        {
          "internalType": "bool",
          "name": "exists",
          "type": "bool"
        },
        {
          "internalType": "bytes32",
          "name": "ownerSha",
          "type": "bytes32"
        },
        {
          "internalType": "bytes32",
          "name": "fileSha256",
          "type": "bytes32"
        },
        {
          "internalType": "string",
          "name": "ipfsCid",
          "type": "string"
        },
        {
          "internalType": "uint256",
          "name": "timestamp",
          "type": "uint256"
        },
        {
          "internalType": "address",
          "name": "submitter",
          "type": "address"
        }
      ],
      "stateMutability": "view",
      "type": "function"
    },
    {
      "inputs": [
        {
          "internalType": "bytes32",
          "name": "",
          "type": "bytes32"
        }
      ],
      "name": "mediaIdByFileSha",
      "outputs": [
        {
          "internalType": "bytes32",
          "name": "",
          "type": "bytes32"
        }
      ],
      "stateMutability": "view",
      "type": "function"
    },
    {
      "inputs": [
        {
          "internalType": "bytes32",
          "name": "mediaId",
          "type": "bytes32"
        },
        {
          "internalType": "bytes32",
          "name": "ownerSha",
          "type": "bytes32"
        },
        {
          "internalType": "bytes32",
          "name": "fileSha256",
          "type": "bytes32"
        },
        {
          "internalType": "string",
          "name": "ipfsCid",
          "type": "string"
        }
      ],
      "name": "register",
      "outputs": [],
      "stateMutability": "nonpayable",
      "type": "function"
    }
  ],
  "bytecode": "0x608060405234801561001057600080fd5b50610663806100206000396000f3fe608060405234801561001057600080fd5b506004361061004c5760003560e01c80637cb34d2d14610051578063bf84bcb614610066578063d6c933b314610094578063fd86d7a5146100c2575b600080fd5b61006461005f366004610361565b6100fc565b005b6100796100743660046103ee565b61024d565b60405161008b96959493929190610407565b60405180910390f35b6100b46100a23660046103ee565b60016020526000908152604090205481565b60405190815260200161008b565b6100e56100d03660046103ee565b60009081526001602052604090205480151591565b60408051921515835260208301919091520161008b565b846101415760405162461bcd60e51b815260206004820152601060248201526f1b59591a585259081c995c5d5a5c995960821b60448201526064015b60405180910390fd5b60008581526020819052604090206003810154156101965760405162461bcd60e51b8152602060048201526012602482015271185b1c9958591e481c9959da5cdd195c995960721b6044820152606401610138565b84815560018101849055600281016101af83858361052c565b504260038201556004810180546001600160a01b0319163317905583158015906101e55750600084815260016020526040902054155b156101fc5760008481526001602052604090208690555b336001600160a01b031685877fbb6d5a9a1bfdbcdc782c3cb48aaa460636ee9af1d9666e3324cf68c6a0ae957d8787874360405161023d94939291906105ed565b60405180910390a4505050505050565b600081815260208190526040812060038101548291829160609183918291908203610297575050604080516020810190915260008082529550859450849350915082905080610358565b8054600182810154600384015460048501546002860180549495949092916001600160a01b03169083906102ca906104a1565b80601f01602080910402602001604051908101604052809291908181526020018280546102f6906104a1565b80156103435780601f1061031857610100808354040283529160200191610343565b820191906000526020600020905b81548152906001019060200180831161032657829003601f168201915b50505050509250965096509650965096509650505b91939550919395565b60008060008060006080868803121561037957600080fd5b853594506020860135935060408601359250606086013567ffffffffffffffff808211156103a657600080fd5b818801915088601f8301126103ba57600080fd5b8135818111156103c957600080fd5b8960208285010111156103db57600080fd5b9699959850939650602001949392505050565b60006020828403121561040057600080fd5b5035919050565b86151581526000602087602084015286604084015260c0606084015285518060c085015260005b8181101561044a5787810183015185820160e00152820161042e565b50600060e0828601015260e0601f19601f8301168501019250505083608083015261048060a08301846001600160a01b03169052565b979650505050505050565b634e487b7160e01b600052604160045260246000fd5b600181811c908216806104b557607f821691505b6020821081036104d557634e487b7160e01b600052602260045260246000fd5b50919050565b601f821115610527576000816000526020600020601f850160051c810160208610156105045750805b601f850160051c820191505b8181101561052357828155600101610510565b5050505b505050565b67ffffffffffffffff8311156105445761054461048b565b6105588361055283546104a1565b836104db565b6000601f84116001811461058c57600085156105745750838201355b600019600387901b1c1916600186901b1783556105e6565b600083815260209020601f19861690835b828110156105bd578685013582556020948501946001909201910161059d565b50868210156105da5760001960f88860031b161c19848701351681555b505060018560011b0183555b5050505050565b848152606060208201528260608201528284608083013760006080848301015260006080601f19601f86011683010190508260408301529594505050505056fea26469706673582212207a817a37dfd4b3df134e32b612f228dd1ca764d3dbc7fdb37a057d295d7c099664736f6c63430008180033",
  "linkReferences": {},
  "deployedLinkReferences": {}
}