{
  "_format": "hh-sol-artifact-1",
  "contractName": "ProofRegistry",
  "sourceName": "chain/contracts/ProofRegistry.sol",
  "abi": [
    {
      "anonymous": false,
      "inputs": [
        {
          "indexed": true,
          "internalType": "bytes32",
          "name": "fileHash",
          "type": "bytes32"
        },
        {
          "indexed": true,
          "internalType": "bytes32",
          "name": "emailSha",
          "type": "bytes32"
        },
        {
          "indexed": false,
          "internalType": "string",
          "name": "ipfsCid",
          "type": "string"
        },
        {
          "indexed": false,
          "internalType": "uint256",
          "name": "timestamp",
          "type": "uint256"
        }
      ],
      "name": "ProofRegistered",
      "type": "event"
    },
    {
      "inputs": [
        {
          "internalType": "bytes32",
          "name": "fileHash",
          "type": "bytes32"
        }
      ],
      "name": "getProof",
      "outputs": [
        {
          "internalType": "bool",
          "name": "exists",
          "type": "bool"
        },
        {
          "internalType": "bytes32",
          "name": "ownerEmailSha",
          "type": "bytes32"
        },
        {
          "internalType": "uint256",
          "name": "timestamp",
          "type": "uint256"
        },
        {
          "internalType": "string",
          "name": "ipfsCid",
          "type": "string"
        }
      ],
      "stateMutability": "view",
      "type": "function"
    },
    {
      "inputs": [
        {
          "internalType": "bytes32",
          "name": "fileHash",
          "type": "bytes32"
        },
        {
          "internalType": "bytes32",
          "name": "emailSha",
          "type": "bytes32"
        },
        {
          "internalType": "string",
          "name": "ipfsCid",
          "type": "string"
        }
      ],
      "name": "registerProof",
      "outputs": [],
      "stateMutability": "nonpayable",
      "type": "function"
    }
  ],
  "bytecode": "0x608060405234801561001057600080fd5b50610583806100206000396000f3fe608060405234801561001057600080fd5b50600436106100365760003560e01c806318edfbc51461003b5780631b80bb3a14610050575b600080fd5b61004e6100493660046102b3565b61007c565b005b61006361005e366004610333565b6101b8565b604051610073949392919061034c565b60405180910390f35b60008481526020819052604090205460ff16156100d45760405162461bcd60e51b8152602060048201526012602482015271105b1c9958591e481c9959da5cdd195c995960721b604482015260640160405180910390fd5b604051806080016040528060011515815260200184815260200142815260200183838080601f016020809104026020016040519081016040528093929190818152602001838380828437600092018290525093909452505086815260208181526040918290208451815460ff1916901515178155908401516001820155908301516002820155606083015190915060038201906101719082610454565b5090505082847fb4d2f6e3ea9b6bf151b67a398411a68d952bd841d4103acb4a9c45eb4b88c9a58484426040516101aa93929190610514565b60405180910390a350505050565b6000818152602081815260408083208151608081018352815460ff1615158152600182015493810193909352600281015491830191909152600381018054849384936060938593838601919061020d906103c9565b80601f0160208091040260200160405190810160405280929190818152602001828054610239906103c9565b80156102865780601f1061025b57610100808354040283529160200191610286565b820191906000526020600020905b81548152906001019060200180831161026957829003601f168201915b505050919092525050815160208301516040840151606090940151919a9099509297509550909350505050565b600080600080606085870312156102c957600080fd5b8435935060208501359250604085013567ffffffffffffffff808211156102ef57600080fd5b818701915087601f83011261030357600080fd5b81358181111561031257600080fd5b88602082850101111561032457600080fd5b95989497505060200194505050565b60006020828403121561034557600080fd5b5035919050565b84151581526000602085602084015284604084015260806060840152835180608085015260005b8181101561038f5785810183015185820160a001528201610373565b50600060a0828601015260a0601f19601f8301168501019250505095945050505050565b634e487b7160e01b600052604160045260246000fd5b600181811c908216806103dd57607f821691505b6020821081036103fd57634e487b7160e01b600052602260045260246000fd5b50919050565b601f82111561044f576000816000526020600020601f850160051c8101602086101561042c5750805b601f850160051c820191505b8181101561044b57828155600101610438565b5050505b505050565b815167ffffffffffffffff81111561046e5761046e6103b3565b6104828161047c84546103c9565b84610403565b602080601f8311600181146104b7576000841561049f5750858301515b600019600386901b1c1916600185901b17855561044b565b600085815260208120601f198616915b828110156104e6578886015182559484019460019091019084016104c7565b50858210156105045787850151600019600388901b60f8161c191681555b5050505050600190811b01905550565b604081528260408201528284606083013760006060848301015260006060601f19601f860116830101905082602083015294935050505056fea264697066735822122095d6debd6261e7afa7180cffd26a92a4b113553bd4bffd38b0f4ba1333f1dcd164736f6c63430008180033",
  "linkReferences": {},
  "deployedLinkReferences": {}
}